:100000000C942A000C943F000C943F000C943F0089
:100010000C943F000C943F000C943F000C943F0064
:100020000C943F000C943F000C943F000C943F0054
:100030000C943F000C943F000C943F000C943F0044
:100040000C943F000C943F000C943F000C943F0034
:100050000C943F0011241FBECFE5D8E0DEBFCDBF1A
:1000600010E0A0E6B0E0EEEAFDE102C005900D92DE
:10007000A837B107D9F70E94B1080C94D50E0C949B
:1000800000000F931F93DF93CF93CDB7DEB7AB97ED
:100090000FB6F894DEBF0FBECDBF8BA782E390E012
:1000A0002BA5FC01208385E390E025E330E0F901F6
:1000B00020812D7FFC01208385E390E025E330E063
:1000C000F90120812B7FFC01208380E090E0A0E2F9
:1000D000B1E489839A83AB83BC8369817A818B8104
:1000E0009C8120E030E04AE753E40E94320BDC01BF
:1000F000CB018D839E83AF83B88711E06D817E81B4
:100100008F81988520E030E040E85FE30E948C0C0E
:1001100088230CF010E0112329F081E090E09A8709
:10012000898746C011E06D817E818F81988520E0AE
:100130003FEF4FE757E40E942C0C18160CF010E02C
:10014000112361F169817A818B819C8120E030E00B
:1001500040E251E40E94320BDC01CB01BC01CD0135
:100160000E945E09DC01CB019A87898712C089E170
:1001700090E09C878B878B859C858C01C8010197BB
:10018000F1F78C011C870B8789859A8501979A87DF
:10019000898789859A85009751F717C06D817E817F
:1001A0008F8198850E945E09DC01CB019A8789873F
:1001B00089859A859E878D878D859E858C01F8011E
:1001C0003197F1F78F011E870D8785E390E025E3D6
:1001D00030E0F90120812160FC01208380E090E083
:1001E000A0E2B1E48F87988BA98BBA8B6F85788951
:1001F00089899A8920E030E04AE753E40E94320B73
:10020000DC01CB018B8B9C8BAD8BBE8B11E06B89A2
:100210007C898D899E8920E030E040E85FE30E9480
:100220008C0C88230CF010E0112329F081E090E081
:10023000988F8F8B46C011E06B897C898D899E8950
:1002400020E03FEF4FE757E40E942C0C18160CF00B
:1002500010E0112361F16F85788989899A8920E0FE
:1002600030E040E251E40E94320BDC01CB01BC01E2
:10027000CD010E945E09DC01CB01988F8F8B12C0EB
:1002800089E190E09A8F898F898D9A8D8C01C801C0
:100290000197F1F78C011A8F098F8F89988D01973B
:1002A000988F8F8B8F89988D009751F717C06B8926
:1002B0007C898D899E890E945E09DC01CB01988F23
:1002C0008F8B8F89988D9C8F8B8F8B8D9C8D8C01C4
:1002D000F8013197F1F78F011C8F0B8F85E390E0C8
:1002E00025E330E0F90120812E7FFC01208385E3A6
:1002F00090E025E330E0F90120812B7FFC01208391
:1003000080E090E0A0E2B1E48D8F9E8FAF8FB8A324
:100310006D8D7E8D8F8D98A120E030E04AE753E40B
:100320000E94320BDC01CB0189A39AA3ABA3BCA32F
:1003300011E069A17AA18BA19CA120E030E040E806
:100340005FE30E948C0C88230CF010E0112329F04D
:1003500081E090E09EA38DA346C011E069A17AA13F
:100360008BA19CA120E03FEF4FE757E40E942C0CAB
:1003700018160CF010E0112361F16D8D7E8D8F8DBC
:1003800098A120E030E040E251E40E94320BDC0111
:10039000CB01BC01CD010E945E09DC01CB019EA313
:1003A0008DA312C089E190E098A78FA38FA198A593
:1003B0008C01C8010197F1F78C0118A70FA38DA13B
:1003C0009EA101979EA38DA38DA19EA1009751F799
:1003D00017C069A17AA18BA19CA10E945E09DC01D2
:1003E000CB019EA38DA38DA19EA19AA789A789A5C4
:1003F0009AA58C01F8013197F1F78F011AA709A787
:10040000AB960FB6F894DEBF0FBECDBFCF91DF9194
:100410001F910F9108950F931F93DF93CF93CDB743
:10042000DEB76D970FB6F894DEBF0FBECDBF8D8FD0
:1004300082E390E02D8DFC01208385E390E025E3AD
:1004400030E0F90120812460FC01208385E390E005
:1004500025E330E0F90120812D7FFC01208380E03D
:1004600090E0A0E2B1E489839A83AB83BC83698185
:100470007A818B819C8120E030E04AE753E40E943E
:10048000320BDC01CB018D839E83AF83B88711E0F3
:100490006D817E818F81988520E030E040E85FE3C8
:1004A0000E948C0C88230CF010E0112329F081E0CD
:1004B00090E09A87898746C011E06D817E818F81A7
:1004C000988520E03FEF4FE757E40E942C0C181668
:1004D0000CF010E0112361F169817A818B819C819C
:1004E00020E030E040E251E40E94320BDC01CB011D
:1004F000BC01CD010E945E09DC01CB019A8789878E
:1005000012C089E190E09C878B878B859C858C014C
:10051000C8010197F1F78C011C870B8789859A85A3
:1005200001979A87898789859A85009751F717C01F
:100530006D817E818F8198850E945E09DC01CB01EF
:100540009A87898789859A859E878D878D859E85DF
:100550008C01F8013197F1F78F011E870D8785E334
:1005600090E025E330E0F90120812160FC01208347
:1005700080E090E0A0E2B1E48F87988BA98BBA8BE2
:100580006F85788989899A8920E030E04AE753E4C9
:100590000E94320BDC01CB018B8B9C8BAD8BBE8B15
:1005A00011E06B897C898D899E8920E030E040E8EC
:1005B0005FE30E948C0C88230CF010E0112329F0DB
:1005C00081E090E0988F8F8B46C011E06B897C8929
:1005D0008D899E8920E03FEF4FE757E40E942C0C65
:1005E00018160CF010E0112361F16F857889898964
:1005F0009A8920E030E040E251E40E94320BDC01B5
:10060000CB01BC01CD010E945E09DC01CB01988FBA
:100610008F8B12C089E190E09A8F898F898D9A8D96
:100620008C01C8010197F1F78C011A8F098F8F890E
:10063000988D0197988F8F8B8F89988D009751F7A0
:1006400017C06B897C898D899E890E945E09DC01B7
:10065000CB01988F8F8B8F89988D9C8F8B8F8B8DF3
:100660009C8D8C01F8013197F1F78F011C8F0B8F56
:1006700085E390E025E330E0F90120812E7FFC0145
:10068000208385E390E025E330E0F90120812B7F92
:10069000FC0120836D960FB6F894DEBF0FBECDBF70
:1006A000CF91DF911F910F9108950F931F93DF93C7
:1006B000CF93CDB7DEB76E970FB6F894DEBF0FBEFF
:1006C000CDBF9E8F8D8F3AC182E390E02D8D3E8D00
:1006D000F9012081FC01208385E390E025E330E0EF
:1006E000F90120812460FC01208385E390E025E36B
:1006F00030E0F90120812D7FFC01208380E090E033
:10070000A0E2B1E489839A83AB83BC8369817A8157
:100710008B819C8120E030E04AE753E40E94320B59
:10072000DC01CB018D839E83AF83B88711E06D819F
:100730007E818F81988520E030E040E85FE30E9471
:100740008C0C88230CF010E0112329F081E090E05C
:100750009A87898746C011E06D817E818F81988557
:1007600020E03FEF4FE757E40E942C0C18160CF0E6
:1007700010E0112361F169817A818B819C8120E0F5
:1007800030E040E251E40E94320BDC01CB01BC01BD
:10079000CD010E945E09DC01CB019A87898712C0D6
:1007A00089E190E09C878B878B859C858C01C801B3
:1007B0000197F1F78C011C870B8789859A85019732
:1007C0009A87898789859A85009751F717C06D8127
:1007D0007E818F8198850E945E09DC01CB019A871A
:1007E000898789859A859E878D878D859E858C01D1
:1007F000F8013197F1F78F011E870D8785E390E0AF
:1008000025E330E0F90120812160FC01208380E0B4
:1008100090E0A0E2B1E48F87988BA98BBA8B6F85AB
:10082000788989899A8920E030E04AE753E40E9478
:10083000320BDC01CB018B8B9C8BAD8BBE8B11E023
:100840006B897C898D899E8920E030E040E85FE3F8
:100850000E948C0C88230CF010E0112329F081E019
:1008600090E0988F8F8B46C011E06B897C898D89D1
:100870009E8920E03FEF4FE757E40E942C0C1816AA
:100880000CF010E0112361F16F85788989899A89CC
:1008900020E030E040E251E40E94320BDC01CB0169
:1008A000BC01CD010E945E09DC01CB01988F8F8BCA
:1008B00012C089E190E09A8F898F898D9A8D8C0181
:1008C000C8010197F1F78C011A8F098F8F89988DD4
:1008D0000197988F8F8B8F89988D009751F717C04C
:1008E0006B897C898D899E890E945E09DC01CB0120
:1008F000988F8F8B8F89988D9C8F8B8F8B8D9C8DF4
:100900008C01F8013197F1F78F011C8F0B8F85E374
:1009100090E025E330E0F90120812E7FFC01208367
:1009200085E390E025E330E0F90120812B7FFC0195
:1009300020838D8D9E8D01969E8F8D8F8D8D9E8DAA
:10094000FC018081882309F0BFCE6E960FB6F89423
:10095000DEBF0FBECDBFCF91DF911F910F910895E4
:10096000DF93CF93CDB7DEB781E390E02FEFFC01AB
:10097000208384E390E02FEFFC01208380E80E9435
:10098000410088E30E94410081E00E9441008EE026
:100990000E944100CF91DF9108950F931F93DF9341
:1009A000CF93CDB7DEB7E9970FB6F894DEBF0FBE91
:1009B000CDBF8BE390E02EE0FC01208389E390E043
:1009C000FC018081807F89838BE390E0FC01808142
:1009D000882F90E08F7090708E30910509F05CC088
:1009E0008981882F90E0803B910501F1813B910541
:1009F00024F48037910541F04FC0803D910541F1CD
:100A0000803E9105B9F148C0000089E390E0FC0107
:100A10008081882F90E09C01207F30708981882F11
:100A200090E02817390789F38AE290C3000089E330
:100A300090E0FC018081882F90E09C01207F307045
:100A40008981882F90E02817390789F380E37EC3D6
:100A5000000089E390E0FC018081882F90E09C01F8
:100A6000207F30708981882F90E02817390789F31B
:100A700083E26CC3000089E390E0FC018081882F51
:100A800090E09C01207F30708981882F90E02817AA
:100A9000390789F384E45AC380E090E0A0E2B1E42E
:100AA0008A839B83AC83BD836A817B818C819D819A
:100AB00020E030E04AE753E40E94320BDC01CB0136
:100AC0008E839F83A887B98711E06E817F81888597
:100AD000998520E030E040E85FE30E948C0C882399
:100AE0000CF010E0112329F081E090E09B878A87C9
:100AF00046C011E06E817F818885998520E03FEFB7
:100B00004FE757E40E942C0C18160CF010E011234C
:100B100061F16A817B818C819D8120E030E040E23F
:100B200051E40E94320BDC01CB01BC01CD010E94DB
:100B30005E09DC01CB019B878A8712C089E190E0C6
:100B40009D878C878C859D858C01C8010197F1F765
:100B50008C011D870C878A859B8501979B878A87D7
:100B60008A859B85009751F717C06E817F818885A4
:100B700099850E945E09DC01CB019B878A878A8563
:100B80009B859F878E878E859F858C01F801319785
:100B9000F1F78F011F870E878BE390E027E0FC01C0
:100BA000208389E390E0FC018081807F89838BE34F
:100BB00090E0FC018081882F90E08F7090708730EA
:100BC000910509F05CC08981882F90E0803B9105F8
:100BD00001F1813B910524F48037910541F04FC02C
:100BE000803D910541F1803E9105B9F148C000007A
:100BF00089E390E0FC018081882F90E09C01207FB8
:100C000030708981882F90E02817390789F381E3B4
:100C10009DC2000089E390E0FC018081882F90E074
:100C20009C01207F30708981882F90E02817390738
:100C300089F382E38BC2000089E390E0FC018081AC
:100C4000882F90E09C01207F30708981882F90E070
:100C50002817390789F383E379C2000089E390E01C
:100C6000FC018081882F90E09C01207F3070898179
:100C7000882F90E02817390789F381E467C280E064
:100C800090E0A0E2B1E4888B998BAA8BBB8B68893A
:100C900079898A899B8920E030E04AE753E40E9401
:100CA000320BDC01CB018C8B9D8BAE8BBF8B11E0AB
:100CB0006C897D898E899F8920E030E040E85FE380
:100CC0000E948C0C88230CF010E0112329F081E0A5
:100CD00090E0998F888F46C011E06C897D898E895C
:100CE0009F8920E03FEF4FE757E40E942C0C181635
:100CF0000CF010E0112361F1688979898A899B8958
:100D000020E030E040E251E40E94320BDC01CB01F4
:100D1000BC01CD010E945E09DC01CB01998F888F57
:100D200012C089E190E09B8F8A8F8A8D9B8D8C0108
:100D3000C8010197F1F78C011B8F0A8F888D998D5F
:100D40000197998F888F888D998D009751F717C0DB
:100D50006C897D898E899F890E945E09DC01CB01A7
:100D6000998F888F888D998D9D8F8C8F8C8D9D8D7F
:100D70008C01F8013197F1F78F011D8F0C8F8BE3F8
:100D800090E02BE0FC01208389E390E0FC0180816E
:100D9000807F89838BE390E0FC018081882F90E045
:100DA0008F7090708B30910509F05CC08981882F1D
:100DB00090E0803B910501F1813B910524F480375F
:100DC000910541F04FC0803D910541F1803E910574
:100DD000B9F148C0000089E390E0FC018081882FD0
:100DE00090E09C01207F30708981882F90E0281747
:100DF000390789F384E3AAC1000089E390E0FC018C
:100E00008081882F90E09C01207F30708981882F1D
:100E100090E02817390789F385E398C1000089E33A
:100E200090E0FC018081882F90E09C01207F307051
:100E30008981882F90E02817390789F386E386C1D6
:100E4000000089E390E0FC018081882F90E09C0104
:100E5000207F30708981882F90E02817390789F327
:100E600082E474C180E090E0A0E2B1E48E8F9F8FB5
:100E7000A8A3B9A36E8D7F8D88A199A120E030E051
:100E80004AE753E40E94320BDC01CB018AA39BA307
:100E9000ACA3BDA311E06AA17BA18CA19DA120E020
:100EA00030E040E85FE30E948C0C88230CF010E0F7
:100EB000112329F081E090E09FA38EA346C011E0AA
:100EC0006AA17BA18CA19DA120E03FEF4FE757E4F1
:100ED0000E942C0C18160CF010E0112361F16E8D9D
:100EE0007F8D88A199A120E030E040E251E40E948A
:100EF000320BDC01CB01BC01CD010E945E09DC019B
:100F0000CB019FA38EA312C089E190E099A788A787
:100F100088A599A58C01C8010197F1F78C0119A743
:100F200008A78EA19FA101979FA38EA38EA19FA129
:100F3000009751F717C06AA17BA18CA19DA10E94C7
:100F40005E09DC01CB019FA38EA38EA19FA19BA76D
:100F50008AA78AA59BA58C01F8013197F1F78F012B
:100F60001BA70AA78BE390E02DE0FC01208389E317
:100F700090E0FC018081807F89838BE390E0FC011D
:100F80008081882F90E08F7090708D30910509F0EE
:100F90005CC08981882F90E0803B910501F1813B05
:100FA000910524F48037910541F04FC0803D9105B3
:100FB00041F1803E9105B9F148C0000089E390E01D
:100FC000FC018081882F90E09C01207F3070898116
:100FD000882F90E02817390789F387E3B7C000000E
:100FE00089E390E0FC018081882F90E09C01207FC4
:100FF00030708981882F90E02817390789F388E3BA
:10100000A5C0000089E390E0FC018081882F90E07A
:101010009C01207F30708981882F90E02817390744
:1010200089F389E393C0000089E390E0FC018081AB
:10103000882F90E09C01207F30708981882F90E07C
:101040002817390789F383E481C080E090E0A0E2AB
:10105000B1E48CA79DA7AEA7BFA76CA57DA58EA563
:101060009FA520E030E04AE753E40E94320BDC0108
:10107000CB0188AB99ABAAABBBAB11E068A979A94E
:101080008AA99BA920E030E040E85FE30E948C0C35
:1010900088230CF010E0112329F081E090E09DAB53
:1010A0008CAB46C011E068A979A98AA99BA920E068
:1010B0003FEF4FE757E40E942C0C18160CF010E09D
:1010C000112361F16CA57DA58EA59FA520E030E0E0
:1010D00040E251E40E94320BDC01CB01BC01CD01A6
:1010E0000E945E09DC01CB019DAB8CAB12C089E193
:1010F00090E09FAB8EAB8EA99FA98C01C801019790
:10110000F1F78C011FAB0EAB8CA99DA901979DAB8C
:101110008CAB8CA99DA9009751F717C068A979A934
:101120008AA99BA90E945E09DC01CB019DAB8CAB17
:101130008CA99DA999AF88AF88AD99AD8C01F801B4
:101140003197F1F78F0119AF08AF80E0E9960FB63C
:10115000F894DEBF0FBECDBFCF91DF911F910F91ED
:1011600008950F931F93DF93CF93CDB7DEB72F97DB
:101170000FB6F894DEBF0FBECDBF8AE390E02FE03C
:10118000FC0120830E94B00480E80E94410080E6B8
:1011900090E00E94550380EC0E94410001C00000D5
:1011A0000E94CD04898380E090E0AAE7B3E48A83BB
:1011B0009B83AC83BD836A817B818C819D8120E090
:1011C00030E04AE753E40E94320BDC01CB018E830E
:1011D0009F83A887B98711E06E817F818885998573
:1011E00020E030E040E85FE30E948C0C88230CF0A4
:1011F00010E0112329F081E090E09B878A8746C0A8
:1012000011E06E817F818885998520E03FEF4FE76F
:1012100057E40E942C0C18160CF010E0112361F119
:101220006A817B818C819D8120E030E040E251E445
:101230000E94320BDC01CB01BC01CD010E945E0992
:10124000DC01CB019B878A8712C089E190E09D87F2
:101250008C878C859D858C01C8010197F1F78C01E5
:101260001D870C878A859B8501979B878A878A853E
:101270009B85009751F717C06E817F81888599857E
:101280000E945E09DC01CB019B878A878A859B854A
:101290009F878E878E859F858C01F8013197F1F7A6
:1012A0008F011F870E878981882309F478CF80EC0E
:1012B0000E94410089810E940B0272CFEF92FF923F
:1012C0000F931F937B018C0120E030E040E05FE44E
:1012D0000E945C0C87FD11C0C801B70120E030E01E
:1012E00040E05FE40E94010B0E94BC0C9B01AC013A
:1012F000205030404040504806C0C801B7010E940D
:10130000BC0C9B01AC01B901CA011F910F91FF9068
:10131000EF900895A0E0B0E0E0E9F9E00C94A20EAF
:10132000FC01EA018081823008F438C1DB019C9124
:10133000923008F430C1843059F4943009F02EC151
:10134000918111968C911197981709F021C126C1AE
:10135000943009F420C19230B1F4823009F01EC1FA
:10136000CA01AF0128E0DA010D90AD01DC010D9258
:10137000CD012150C1F7DB0111968C91119791811C
:10138000892389830AC1823009F405C1C280D380D0
:10139000DB0112966D907C901397248135814681F4
:1013A00057811496ED90FD900D911C911797C601F1
:1013B000861997095C0197FF04C0AA24BB24A81AC8
:1013C000B90AB0E2AB16B1040CF061C018161906E8
:1013D0006CF5370148010A2C04C0969487947794E1
:1013E00067940A94D2F781E090E0A0E0B0E00A2C84
:1013F00004C0880F991FAA1FBB1F0A94D2F7019738
:10140000A109B1098E219F21A023B123EE24FF243D
:101410008701E3940097A105B10519F4EE24FF2498
:101420008701E628F728082919293CC00097D1F13F
:10143000CA0CDB1C39014A010A2C04C0969487941B
:10144000779467940A94D2F781E090E0A0E0B0E04E
:101450000A2C04C0880F991FAA1FBB1F0A94D2F739
:101460000197A109B10982239323A423B52321E085
:1014700030E040E050E00097A105B10519F420E00C
:1014800030E0A90126293729482959290BC06C14B5
:101490007D0424F4EE24FF24870104C0630120E0CE
:1014A00030E0A9018181FB019181891709F445C0D0
:1014B000882349F0D801C701821B930BA40BB50BFD
:1014C0009C01AD0104C02E193F09400B510B57FD83
:1014D00004C01982DB82CA820BC081E08983DB826F
:1014E000CA8250954095309521953F4F4F4F5F4FA1
:1014F0002C833D834E835F830DC0880F991FAA1FE5
:10150000BB1F8C839D83AE83BF838A819B810197A0
:101510009B838A838C819D81AE81BF819C01AD01BB
:1015200021503040404050402F3FEFEF3E07EFEF5B
:101530004E07EFE35E0708F30BC08983DB82CA82A4
:101540002E0D3F1D401F511F2C833D834E835F8313
:1015500083E088832C813D814E815F8157FF1DC0D0
:10156000DA01C90181709070A070B07056954795EE
:1015700037952795822B932BA42BB52B8C839D839A
:10158000AE83BF838A819B8101969B838A8305C03A
:10159000EFE6F0E003C0FB0101C0FE01CF01CDB7D3
:1015A000DEB7EEE00C94BE0EA0E2B0E0EAEDFAE0A9
:1015B0000C94AA0E69837A838B839C832D833E834C
:1015C0004F83588789E0E82EF12CEC0EFD1ECE01EA
:1015D0000196B7010E94DC0D8E010F5E1F4FCE01F8
:1015E0000596B8010E94DC0DC701B801AE01475E47
:1015F0005F4F0E948A090E940E0DA096E6E00C94AF
:10160000C60EA0E2B0E0E7E0FBE00C94AA0E69830E
:101610007A838B839C832D833E834F8358878E01EF
:10162000075F1F4FCE010196B8010E94DC0D91E1CA
:10163000E92EF12CEC0EFD1ECE010596B7010E949D
:10164000DC0D8A8991E089278A8BC801B701AE0138
:10165000475E5F4F0E948A090E940E0DA096E6E049
:101660000C94C60EA0E2B0E0E8E3FBE00C949E0E02
:1016700069837A838B839C832D833E834F83588732
:10168000CE010196BE01675F7F4F0E94DC0DCE0147
:101690000596BE016F5E7F4F0E94DC0D99859230EA
:1016A00078F089898230C0F0943019F4823041F4A6
:1016B000CBC0843019F4923079F4C6C0923051F422
:1016C00081E02A859A89291709F480E08A87CE016A
:1016D0000996BCC0823051F481E02A859A89291785
:1016E00009F480E08A8BCE014196B0C06D847E847F
:1016F0008F849888ED88FE880F89188DE0E2F0E0ED
:1017000080E090E0DC01AA24BB24650120E030E009
:10171000A901B3016170707061157105D1F02E0DD2
:101720003F1D401F511F15012601280E391E4A1E5C
:101730005B1E81E090E0A0E0B0E02E153F05400781
:10174000510718F080E090E0DC01820D931DA41D8C
:10175000B51DAA0CBB1CCC1CDD1C17FF09C061E029
:10176000262E312C412C512CA228B328C428D52850
:10177000319749F0EE0CFF1C001F111F96948794BF
:1017800077946794C6CF6B897C89EB85FC856E0F57
:101790007F1F6E5F7F4F7C8F6B8F61E0EA857A8958
:1017A000E71709F460E06A8F6B8D7C8D10C0FC0137
:1017B000E170F070309729F0569547953795279549
:1017C0005068B695A795979587956F5F7F4FB7FD42
:1017D000EECF0CC0880F991FAA1FBB1F57FD816059
:1017E000220F331F441F551F615070408030E0E0CE
:1017F0009E07E0E0AE07E0E4BE0760F36B8F7C8FEE
:101800006FE7E62EF12C012D112DE822F9220A2393
:101810001B2360E4E616F1040105110561F487FD60
:101820000AC0211531054105510529F0805C9F4F03
:10183000AF4FBF4F80788D8F9E8FAF8FB8A383E05F
:10184000898FCE01499602C08FE690E00E940E0D6E
:10185000A096E2E10C94BA0EA8E1B0E0E2E3FCE06D
:101860000C94AA0E69837A838B839C832D833E8399
:101870004F8358878E01075F1F4FCE010196B80135
:101880000E94DC0D81E1E82EF12CEC0EFD1ECE0154
:101890000596B7010E94DC0D8985823040F0898968
:1018A000823028F0C801B7010E94450E01C08FEFB9
:1018B0006896E6E00C94C60EA8E1B0E0E2E6FCE033
:1018C0000C94AA0E69837A838B839C832D833E8339
:1018D0004F8358878E01075F1F4FCE010196B801D5
:1018E0000E94DC0D81E1E82EF12CEC0EFD1ECE01F4
:1018F0000596B7010E94DC0D8985823040F0898908
:10190000823028F0C801B7010E94450E01C08FEF58
:101910006896E6E00C94C60EA8E1B0E0E2E9FCE0CF
:101920000C94AA0E69837A838B839C832D833E83D8
:101930004F8358878E01075F1F4FCE010196B80174
:101940000E94DC0D81E1E82EF12CEC0EFD1ECE0193
:101950000596B7010E94DC0D8985823040F08989A7
:10196000823028F0C801B7010E94450E01C081E015
:101970006896E6E00C94C60EACE0B0E0E2ECFCE069
:101980000C94AE0E69837A838B839C83CE0101967F
:10199000BE016B5F7F4F0E94DC0D8D81823081F133
:1019A000823070F1843021F48E81882369F10AC07D
:1019B0002F81388537FD24C06E812F3131053CF0F1
:1019C000662311F120E030E040E050E821C08EE1D4
:1019D00090E0821B930B29853A854B855C8504C07A
:1019E00056954795379527958A95D2F7662381F0C6
:1019F00050954095309521953F4F4F4F5F4F08C010
:101A000020E030E0A90104C02FEF3FEF4FEF5FE788
:101A1000B901CA012C96E2E00C94CA0EEF92FF9233
:101A20000F931F93CF93DF93FC012481358146816F
:101A3000578161818081823020F44061EFEFF0E0D6
:101A4000A3C0843009F49BC0823009F492C02115F0
:101A500031054105510509F48FC00280F381E02D65
:101A60008FEFE238F8070CF05AC0C2E8DFEFCE1B68
:101A7000DF0BCA31D1056CF579018A010C2E04C047
:101A800016950795F794E7940A94D2F781E090E0D1
:101A9000A0E0B0E00C2E04C0880F991FAA1FBB1F46
:101AA0000A94D2F70197A109B10982239323A423B1
:101AB000B52321E030E040E050E00097A105B105FA
:101AC00019F420E030E0A9012E293F29402B512BA9
:101AD00003C020E030E0A901DA01C9018F779070DE
:101AE000A070B07080349105A105B10539F427FFCD
:101AF00009C0205C3F4F4F4F5F4F04C0215C3F4FF8
:101B00004F4F5F4FE1E0F0E0203080E0380780E0A9
:101B1000480780E4580728F5E0E0F0E022C0E0380C
:101B2000F1056CF5E158FF4FDA01C9018F7790702C
:101B3000A070B07080349105A105B10539F427FF7C
:101B400009C0205C3F4F4F4F5F4F04C0215C3F4FA7
:101B50004F4F5F4F57FF05C05695479537952795CF
:101B6000319687E056954795379527958A95D1F711
:101B70000BC0E0E0F0E005C0E0E0F0E005C0EFEF12
:101B8000F0E020E030E0A9018E2F87958827879527
:101B9000942F9F77679566276795E695E22EA92F84
:101BA000A82BFE2FF62B622F732F8A2F9F2FCDB7D6
:101BB000DEB7E6E00C94C60EDC01FB012C91119619
:101BC0003C91119712968C911297482F4F7750E0C5
:101BD000982F991F9927991F13966C911397862F09
:101BE000880F892B90E0661F6627661F6183009728
:101BF00039F5211531054105510511F482E029C05F
:101C000082E89FEF9383828367E0220F331F441F94
:101C1000551F6A95D1F783E0808309C0220F331FD7
:101C2000441F551F828193810197938382832030C3
:101C300080E0380780E0480780E4580778F320C048
:101C40008F3F910579F4211531054105510519F4AE
:101C500084E08083089544FF03C081E0808310C046
:101C600010820EC08F5790409383828383E08083DD
:101C700087E0220F331F441F551F8A95D1F7506408
:101C800024833583468357830895FC01DB019081CB
:101C9000923008F449C08C91823008F445C09430E9
:101CA00051F461818430B1F511962C91119730E097
:101CB000261B310941C0843021F0923041F482303A
:101CC000B1F111968C9111978823A1F12DC06181FA
:101CD000823001F111968C9111976817D9F4228105
:101CE000338112968D919C9113978217930794F0EC
:101CF00028173907BCF02481358146815781149615
:101D00008D919D910D90BC91A02D82179307A407F2
:101D1000B50718F4662341F00DC0281739074A07A4
:101D20005B0728F4662331F021E030E005C020E0B5
:101D300030E002C02FEF3FEFC90108952F923F928C
:101D40004F925F926F927F928F929F92AF92BF92CB
:101D5000CF92DF92EF92FF920F931F93CF93DF9377
:101D6000CDB7DEB7CA1BDB0B0FB6F894DEBF0FBED4
:101D7000CDBF09942A88398848885F846E847D8421
:101D80008C849B84AA84B984C884DF80EE80FD8023
:101D90000C811B81AA81B981CE0FD11D0FB6F89499
:0E1DA000DEBF0FBECDBFED010895F894FFCF5A
:101DAE004B45595041442054455354494E47000029
:081DBE0000000000000000001D
:00000001FF
